{
  "contractName": "NFTCollection",
  "abi": [
    {
      "inputs": [],
      "stateMutability": "nonpayable",
      "type": "constructor"
    },
    {
      "anonymous": false,
      "inputs": [
        {
          "indexed": true,
          "internalType": "address",
          "name": "owner",
          "type": "address"
        },
        {
          "indexed": true,
          "internalType": "address",
          "name": "approved",
          "type": "address"
        },
        {
          "indexed": true,
          "internalType": "uint256",
          "name": "tokenId",
          "type": "uint256"
        }
      ],
      "name": "Approval",
      "type": "event"
    },
    {
      "anonymous": false,
      "inputs": [
        {
          "indexed": true,
          "internalType": "address",
          "name": "owner",
          "type": "address"
        },
        {
          "indexed": true,
          "internalType": "address",
          "name": "operator",
          "type": "address"
        },
        {
          "indexed": false,
          "internalType": "bool",
          "name": "approved",
          "type": "bool"
        }
      ],
      "name": "ApprovalForAll",
      "type": "event"
    },
    {
      "anonymous": false,
      "inputs": [
        {
          "indexed": true,
          "internalType": "address",
          "name": "from",
          "type": "address"
        },
        {
          "indexed": true,
          "internalType": "address",
          "name": "to",
          "type": "address"
        },
        {
          "indexed": true,
          "internalType": "uint256",
          "name": "tokenId",
          "type": "uint256"
        }
      ],
      "name": "Transfer",
      "type": "event"
    },
    {
      "inputs": [
        {
          "internalType": "address",
          "name": "to",
          "type": "address"
        },
        {
          "internalType": "uint256",
          "name": "tokenId",
          "type": "uint256"
        }
      ],
      "name": "approve",
      "outputs": [],
      "stateMutability": "nonpayable",
      "type": "function"
    },
    {
      "inputs": [
        {
          "internalType": "address",
          "name": "owner",
          "type": "address"
        }
      ],
      "name": "balanceOf",
      "outputs": [
        {
          "internalType": "uint256",
          "name": "",
          "type": "uint256"
        }
      ],
      "stateMutability": "view",
      "type": "function"
    },
    {
      "inputs": [
        {
          "internalType": "uint256",
          "name": "tokenId",
          "type": "uint256"
        }
      ],
      "name": "getApproved",
      "outputs": [
        {
          "internalType": "address",
          "name": "",
          "type": "address"
        }
      ],
      "stateMutability": "view",
      "type": "function"
    },
    {
      "inputs": [
        {
          "internalType": "address",
          "name": "owner",
          "type": "address"
        },
        {
          "internalType": "address",
          "name": "operator",
          "type": "address"
        }
      ],
      "name": "isApprovedForAll",
      "outputs": [
        {
          "internalType": "bool",
          "name": "",
          "type": "bool"
        }
      ],
      "stateMutability": "view",
      "type": "function"
    },
    {
      "inputs": [],
      "name": "name",
      "outputs": [
        {
          "internalType": "string",
          "name": "",
          "type": "string"
        }
      ],
      "stateMutability": "view",
      "type": "function"
    },
    {
      "inputs": [
        {
          "internalType": "uint256",
          "name": "tokenId",
          "type": "uint256"
        }
      ],
      "name": "ownerOf",
      "outputs": [
        {
          "internalType": "address",
          "name": "",
          "type": "address"
        }
      ],
      "stateMutability": "view",
      "type": "function"
    },
    {
      "inputs": [
        {
          "internalType": "address",
          "name": "from",
          "type": "address"
        },
        {
          "internalType": "address",
          "name": "to",
          "type": "address"
        },
        {
          "internalType": "uint256",
          "name": "tokenId",
          "type": "uint256"
        }
      ],
      "name": "safeTransferFrom",
      "outputs": [],
      "stateMutability": "nonpayable",
      "type": "function"
    },
    {
      "inputs": [
        {
          "internalType": "address",
          "name": "from",
          "type": "address"
        },
        {
          "internalType": "address",
          "name": "to",
          "type": "address"
        },
        {
          "internalType": "uint256",
          "name": "tokenId",
          "type": "uint256"
        },
        {
          "internalType": "bytes",
          "name": "_data",
          "type": "bytes"
        }
      ],
      "name": "safeTransferFrom",
      "outputs": [],
      "stateMutability": "nonpayable",
      "type": "function"
    },
    {
      "inputs": [
        {
          "internalType": "address",
          "name": "operator",
          "type": "address"
        },
        {
          "internalType": "bool",
          "name": "approved",
          "type": "bool"
        }
      ],
      "name": "setApprovalForAll",
      "outputs": [],
      "stateMutability": "nonpayable",
      "type": "function"
    },
    {
      "inputs": [],
      "name": "symbol",
      "outputs": [
        {
          "internalType": "string",
          "name": "",
          "type": "string"
        }
      ],
      "stateMutability": "view",
      "type": "function"
    },
    {
      "inputs": [
        {
          "internalType": "uint256",
          "name": "index",
          "type": "uint256"
        }
      ],
      "name": "tokenByIndex",
      "outputs": [
        {
          "internalType": "uint256",
          "name": "",
          "type": "uint256"
        }
      ],
      "stateMutability": "view",
      "type": "function"
    },
    {
      "inputs": [
        {
          "internalType": "address",
          "name": "owner",
          "type": "address"
        },
        {
          "internalType": "uint256",
          "name": "index",
          "type": "uint256"
        }
      ],
      "name": "tokenOfOwnerByIndex",
      "outputs": [
        {
          "internalType": "uint256",
          "name": "",
          "type": "uint256"
        }
      ],
      "stateMutability": "view",
      "type": "function"
    },
    {
      "inputs": [
        {
          "internalType": "uint256",
          "name": "",
          "type": "uint256"
        }
      ],
      "name": "tokenURIs",
      "outputs": [
        {
          "internalType": "string",
          "name": "",
          "type": "string"
        }
      ],
      "stateMutability": "view",
      "type": "function"
    },
    {
      "inputs": [],
      "name": "totalSupply",
      "outputs": [
        {
          "internalType": "uint256",
          "name": "",
          "type": "uint256"
        }
      ],
      "stateMutability": "view",
      "type": "function"
    },
    {
      "inputs": [
        {
          "internalType": "address",
          "name": "from",
          "type": "address"
        },
        {
          "internalType": "address",
          "name": "to",
          "type": "address"
        },
        {
          "internalType": "uint256",
          "name": "tokenId",
          "type": "uint256"
        }
      ],
      "name": "transferFrom",
      "outputs": [],
      "stateMutability": "nonpayable",
      "type": "function"
    },
    {
      "inputs": [
        {
          "internalType": "bytes4",
          "name": "interfaceId",
          "type": "bytes4"
        }
      ],
      "name": "supportsInterface",
      "outputs": [
        {
          "internalType": "bool",
          "name": "",
          "type": "bool"
        }
      ],
      "stateMutability": "view",
      "type": "function"
    },
    {
      "inputs": [
        {
          "internalType": "uint256",
          "name": "tokenId",
          "type": "uint256"
        }
      ],
      "name": "tokenURI",
      "outputs": [
        {
          "internalType": "string",
          "name": "",
          "type": "string"
        }
      ],
      "stateMutability": "view",
      "type": "function"
    },
    {
      "inputs": [
        {
          "internalType": "string",
          "name": "_tokenURI",
          "type": "string"
        }
      ],
      "name": "safeMint",
      "outputs": [],
      "stateMutability": "nonpayable",
      "type": "function"
    }
  ],
  "bytecode": "0x608060405234801562000010575f80fd5b506040518060400160405280600e81526020017f6d544320436f6c6c656374696f6e0000000000000000000000000000000000008152506040518060400160405280600381526020017f6d54430000000000000000000000000000000000000000000000000000000000815250815f90816200008d91906200030c565b5080600190816200009f91906200030c565b505050620003f0565b5f81519050919050565b7f4e487b71000000000000000000000000000000000000000000000000000000005f52604160045260245ffd5b7f4e487b71000000000000000000000000000000000000000000000000000000005f52602260045260245ffd5b5f60028204905060018216806200012457607f821691505b6020821081036200013a5762000139620000df565b5b50919050565b5f819050815f5260205f209050919050565b5f6020601f8301049050919050565b5f82821b905092915050565b5f600883026200019e7fffffffffffffffffffffffffffffffffffffffffffffffffffffffffffffffff8262000161565b620001aa868362000161565b95508019841693508086168417925050509392505050565b5f819050919050565b5f819050919050565b5f620001f4620001ee620001e884620001c2565b620001cb565b620001c2565b9050919050565b5f819050919050565b6200020f83620001d4565b620002276200021e82620001fb565b8484546200016d565b825550505050565b5f90565b6200023d6200022f565b6200024a81848462000204565b505050565b5b818110156200027157620002655f8262000233565b60018101905062000250565b5050565b601f821115620002c0576200028a8162000140565b620002958462000152565b81016020851015620002a5578190505b620002bd620002b48562000152565b8301826200024f565b50505b505050565b5f82821c905092915050565b5f620002e25f1984600802620002c5565b1980831691505092915050565b5f620002fc8383620002d1565b9150826002028217905092915050565b6200031782620000a8565b67ffffffffffffffff811115620003335762000332620000b2565b5b6200033f82546200010c565b6200034c82828562000275565b5f60209050601f83116001811462000382575f84156200036d578287015190505b620003798582620002ef565b865550620003e8565b601f198416620003928662000140565b5f5b82811015620003bb5784890151825560018201915060208501945060208101905062000394565b86831015620003db5784890151620003d7601f891682620002d1565b8355505b6001600288020188555050505b505050505050565b61314380620003fe5f395ff3fe608060405234801561000f575f80fd5b5060043610610114575f3560e01c80636352211e116100a057806395d89b411161006f57806395d89b4114610314578063a22cb46514610332578063b88d4fde1461034e578063c87b56dd1461036a578063e985e9c51461039a57610114565b80636352211e14610268578063695850fb146102985780636c8b703f146102b457806370a08231146102e457610114565b806318160ddd116100e757806318160ddd146101b257806323b872dd146101d05780632f745c59146101ec57806342842e0e1461021c5780634f6ccce71461023857610114565b806301ffc9a71461011857806306fdde0314610148578063081812fc14610166578063095ea7b314610196575b5f80fd5b610132600480360381019061012d9190611d56565b6103ca565b60405161013f9190611d9b565b60405180910390f35b6101506103db565b60405161015d9190611e3e565b60405180910390f35b610180600480360381019061017b9190611e91565b61046a565b60405161018d9190611efb565b60405180910390f35b6101b060048036038101906101ab9190611f3e565b6104eb565b005b6101ba610601565b6040516101c79190611f8b565b60405180910390f35b6101ea60048036038101906101e59190611fa4565b61060d565b005b61020660048036038101906102019190611f3e565b61066d565b6040516102139190611f8b565b60405180910390f35b61023660048036038101906102319190611fa4565b61070d565b005b610252600480360381019061024d9190611e91565b61072c565b60405161025f9190611f8b565b60405180910390f35b610282600480360381019061027d9190611e91565b61079a565b60405161028f9190611efb565b60405180910390f35b6102b260048036038101906102ad9190612120565b610846565b005b6102ce60048036038101906102c99190611e91565b61094f565b6040516102db9190611e3e565b60405180910390f35b6102fe60048036038101906102f99190612167565b6109f5565b60405161030b9190611f8b565b60405180910390f35b61031c610aa9565b6040516103299190611e3e565b60405180910390f35b61034c600480360381019061034791906121bc565b610b39565b005b61036860048036038101906103639190612298565b610b4f565b005b610384600480360381019061037f9190611e91565b610bb1565b6040516103919190611e3e565b60405180910390f35b6103b460048036038101906103af9190612318565b610c9a565b6040516103c19190611d9b565b60405180910390f35b5f6103d482610d28565b9050919050565b60605f80546103e990612383565b80601f016020809104026020016040519081016040528092919081815260200182805461041590612383565b80156104605780601f1061043757610100808354040283529160200191610460565b820191905f5260205f20905b81548152906001019060200180831161044357829003601f168201915b5050505050905090565b5f61047482610da1565b6104b3576040517f08c379a00000000000000000000000000000000000000000000000000000000081526004016104aa90612423565b60405180910390fd5b60045f8381526020019081526020015f205f9054906101000a900473ffffffffffffffffffffffffffffffffffffffff169050919050565b5f6104f58261079a565b90508073ffffffffffffffffffffffffffffffffffffffff168373ffffffffffffffffffffffffffffffffffffffff1603610565576040517f08c379a000000000000000000000000000000000000000000000000000000000815260040161055c906124b1565b60405180910390fd5b8073ffffffffffffffffffffffffffffffffffffffff16610584610e09565b73ffffffffffffffffffffffffffffffffffffffff1614806105b357506105b2816105ad610e09565b610c9a565b5b6105f2576040517f08c379a00000000000000000000000000000000000000000000000000000000081526004016105e99061253f565b60405180910390fd5b6105fc8383610e10565b505050565b5f600880549050905090565b61061e610618610e09565b82610ec6565b61065d576040517f08c379a0000000000000000000000000000000000000000000000000000000008152600401610654906125cd565b60405180910390fd5b610668838383610fa2565b505050565b5f610677836109f5565b82106106b8576040517f08c379a00000000000000000000000000000000000000000000000000000000081526004016106af9061265b565b60405180910390fd5b60065f8473ffffffffffffffffffffffffffffffffffffffff1673ffffffffffffffffffffffffffffffffffffffff1681526020019081526020015f205f8381526020019081526020015f2054905092915050565b61072783838360405180602001604052805f815250610b4f565b505050565b5f610735610601565b8210610776576040517f08c379a000000000000000000000000000000000000000000000000000000000815260040161076d906126e9565b60405180910390fd5b6008828154811061078a57610789612707565b5b905f5260205f2001549050919050565b5f8060025f8481526020019081526020015f205f9054906101000a900473ffffffffffffffffffffffffffffffffffffffff1690505f73ffffffffffffffffffffffffffffffffffffffff168173ffffffffffffffffffffffffffffffffffffffff160361083d576040517f08c379a0000000000000000000000000000000000000000000000000000000008152600401610834906127a4565b60405180910390fd5b80915050919050565b600b8160405161085691906127fc565b90815260200160405180910390205f9054906101000a900460ff16156108b1576040517f08c379a00000000000000000000000000000000000000000000000000000000081526004016108a89061285c565b60405180910390fd5b600a81908060018154018082558091505060019003905f5260205f20015f9091909190915090816108e29190612a17565b505f600a80549050905081600c5f8381526020019081526020015f20908161090a9190612a17565b5061091533826111fd565b6001600b8360405161092791906127fc565b90815260200160405180910390205f6101000a81548160ff0219169083151502179055505050565b600a818154811061095e575f80fd5b905f5260205f20015f91509050805461097690612383565b80601f01602080910402602001604051908101604052809291908181526020018280546109a290612383565b80156109ed5780601f106109c4576101008083540402835291602001916109ed565b820191905f5260205f20905b8154815290600101906020018083116109d057829003601f168201915b505050505081565b5f8073ffffffffffffffffffffffffffffffffffffffff168273ffffffffffffffffffffffffffffffffffffffff1603610a64576040517f08c379a0000000000000000000000000000000000000000000000000000000008152600401610a5b90612b56565b60405180910390fd5b60035f8373ffffffffffffffffffffffffffffffffffffffff1673ffffffffffffffffffffffffffffffffffffffff1681526020019081526020015f20549050919050565b606060018054610ab890612383565b80601f0160208091040260200160405190810160405280929190818152602001828054610ae490612383565b8015610b2f5780601f10610b0657610100808354040283529160200191610b2f565b820191905f5260205f20905b815481529060010190602001808311610b1257829003601f168201915b5050505050905090565b610b4b610b44610e09565b838361121a565b5050565b610b60610b5a610e09565b83610ec6565b610b9f576040517f08c379a0000000000000000000000000000000000000000000000000000000008152600401610b96906125cd565b60405180910390fd5b610bab84848484611381565b50505050565b6060610bbc82610da1565b610bfb576040517f08c379a0000000000000000000000000000000000000000000000000000000008152600401610bf290612be4565b60405180910390fd5b600c5f8381526020019081526020015f208054610c1790612383565b80601f0160208091040260200160405190810160405280929190818152602001828054610c4390612383565b8015610c8e5780601f10610c6557610100808354040283529160200191610c8e565b820191905f5260205f20905b815481529060010190602001808311610c7157829003601f168201915b50505050509050919050565b5f60055f8473ffffffffffffffffffffffffffffffffffffffff1673ffffffffffffffffffffffffffffffffffffffff1681526020019081526020015f205f8373ffffffffffffffffffffffffffffffffffffffff1673ffffffffffffffffffffffffffffffffffffffff1681526020019081526020015f205f9054906101000a900460ff16905092915050565b5f7f780e9d63000000000000000000000000000000000000000000000000000000007bffffffffffffffffffffffffffffffffffffffffffffffffffffffff1916827bffffffffffffffffffffffffffffffffffffffffffffffffffffffff19161480610d9a5750610d99826113dd565b5b9050919050565b5f8073ffffffffffffffffffffffffffffffffffffffff1660025f8481526020019081526020015f205f9054906101000a900473ffffffffffffffffffffffffffffffffffffffff1673ffffffffffffffffffffffffffffffffffffffff1614159050919050565b5f33905090565b8160045f8381526020019081526020015f205f6101000a81548173ffffffffffffffffffffffffffffffffffffffff021916908373ffffffffffffffffffffffffffffffffffffffff160217905550808273ffffffffffffffffffffffffffffffffffffffff16610e808361079a565b73ffffffffffffffffffffffffffffffffffffffff167f8c5be1e5ebec7d5bd14f71427d1e84f3dd0314c0f7b2291e5b200ac8c7c3b92560405160405180910390a45050565b5f610ed082610da1565b610f0f576040517f08c379a0000000000000000000000000000000000000000000000000000000008152600401610f0690612c72565b60405180910390fd5b5f610f198361079a565b90508073ffffffffffffffffffffffffffffffffffffffff168473ffffffffffffffffffffffffffffffffffffffff161480610f5b5750610f5a8185610c9a565b5b80610f9957508373ffffffffffffffffffffffffffffffffffffffff16610f818461046a565b73ffffffffffffffffffffffffffffffffffffffff16145b91505092915050565b8273ffffffffffffffffffffffffffffffffffffffff16610fc28261079a565b73ffffffffffffffffffffffffffffffffffffffff1614611018576040517f08c379a000000000000000000000000000000000000000000000000000000000815260040161100f90612d00565b60405180910390fd5b5f73ffffffffffffffffffffffffffffffffffffffff168273ffffffffffffffffffffffffffffffffffffffff1603611086576040517f08c379a000000000000000000000000000000000000000000000000000000000815260040161107d90612d8e565b60405180910390fd5b6110918383836114be565b61109b5f82610e10565b600160035f8573ffffffffffffffffffffffffffffffffffffffff1673ffffffffffffffffffffffffffffffffffffffff1681526020019081526020015f205f8282546110e89190612dd9565b92505081905550600160035f8473ffffffffffffffffffffffffffffffffffffffff1673ffffffffffffffffffffffffffffffffffffffff1681526020019081526020015f205f82825461113c9190612e0c565b925050819055508160025f8381526020019081526020015f205f6101000a81548173ffffffffffffffffffffffffffffffffffffffff021916908373ffffffffffffffffffffffffffffffffffffffff160217905550808273ffffffffffffffffffffffffffffffffffffffff168473ffffffffffffffffffffffffffffffffffffffff167fddf252ad1be2c89b69c2b068fc378daa952ba7f163c4a11628f55a4df523b3ef60405160405180910390a46111f88383836114ce565b505050565b611216828260405180602001604052805f8152506114d3565b5050565b8173ffffffffffffffffffffffffffffffffffffffff168373ffffffffffffffffffffffffffffffffffffffff1603611288576040517f08c379a000000000000000000000000000000000000000000000000000000000815260040161127f90612e89565b60405180910390fd5b8060055f8573ffffffffffffffffffffffffffffffffffffffff1673ffffffffffffffffffffffffffffffffffffffff1681526020019081526020015f205f8473ffffffffffffffffffffffffffffffffffffffff1673ffffffffffffffffffffffffffffffffffffffff1681526020019081526020015f205f6101000a81548160ff0219169083151502179055508173ffffffffffffffffffffffffffffffffffffffff168373ffffffffffffffffffffffffffffffffffffffff167f17307eab39ab6107e8899845ad3d59bd9653f200f220920489ca2b5937696c31836040516113749190611d9b565b60405180910390a3505050565b61138c848484610fa2565b6113988484848461152d565b6113d7576040517f08c379a00000000000000000000000000000000000000000000000000000000081526004016113ce90612f17565b60405180910390fd5b50505050565b5f7f80ac58cd000000000000000000000000000000000000000000000000000000007bffffffffffffffffffffffffffffffffffffffffffffffffffffffff1916827bffffffffffffffffffffffffffffffffffffffffffffffffffffffff191614806114a757507f5b5e139f000000000000000000000000000000000000000000000000000000007bffffffffffffffffffffffffffffffffffffffffffffffffffffffff1916827bffffffffffffffffffffffffffffffffffffffffffffffffffffffff1916145b806114b757506114b6826116af565b5b9050919050565b6114c9838383611718565b505050565b505050565b6114dd8383611828565b6114e95f84848461152d565b611528576040517f08c379a000000000000000000000000000000000000000000000000000000000815260040161151f90612f17565b60405180910390fd5b505050565b5f61154d8473ffffffffffffffffffffffffffffffffffffffff166119f7565b156116a2578373ffffffffffffffffffffffffffffffffffffffff1663150b7a02611576610e09565b8786866040518563ffffffff1660e01b81526004016115989493929190612f87565b6020604051808303815f875af19250505080156115d357506040513d601f19601f820116820180604052508101906115d09190612fe5565b60015b611652573d805f8114611601576040519150601f19603f3d011682016040523d82523d5f602084013e611606565b606091505b505f81510361164a576040517f08c379a000000000000000000000000000000000000000000000000000000000815260040161164190612f17565b60405180910390fd5b805181602001fd5b63150b7a0260e01b7bffffffffffffffffffffffffffffffffffffffffffffffffffffffff1916817bffffffffffffffffffffffffffffffffffffffffffffffffffffffff1916149150506116a7565b600190505b949350505050565b5f7f01ffc9a7000000000000000000000000000000000000000000000000000000007bffffffffffffffffffffffffffffffffffffffffffffffffffffffff1916827bffffffffffffffffffffffffffffffffffffffffffffffffffffffff1916149050919050565b611723838383611a19565b5f73ffffffffffffffffffffffffffffffffffffffff168373ffffffffffffffffffffffffffffffffffffffff16036117645761175f81611a1e565b6117a3565b8173ffffffffffffffffffffffffffffffffffffffff168373ffffffffffffffffffffffffffffffffffffffff16146117a2576117a18382611a62565b5b5b5f73ffffffffffffffffffffffffffffffffffffffff168273ffffffffffffffffffffffffffffffffffffffff16036117e4576117df81611bb8565b611823565b8273ffffffffffffffffffffffffffffffffffffffff168273ffffffffffffffffffffffffffffffffffffffff1614611822576118218282611c78565b5b5b505050565b5f73ffffffffffffffffffffffffffffffffffffffff168273ffffffffffffffffffffffffffffffffffffffff1603611896576040517f08c379a000000000000000000000000000000000000000000000000000000000815260040161188d9061305a565b60405180910390fd5b61189f81610da1565b156118df576040517f08c379a00000000000000000000000000000000000000000000000000000000081526004016118d6906130c2565b60405180910390fd5b6118ea5f83836114be565b600160035f8473ffffffffffffffffffffffffffffffffffffffff1673ffffffffffffffffffffffffffffffffffffffff1681526020019081526020015f205f8282546119379190612e0c565b925050819055508160025f8381526020019081526020015f205f6101000a81548173ffffffffffffffffffffffffffffffffffffffff021916908373ffffffffffffffffffffffffffffffffffffffff160217905550808273ffffffffffffffffffffffffffffffffffffffff165f73ffffffffffffffffffffffffffffffffffffffff167fddf252ad1be2c89b69c2b068fc378daa952ba7f163c4a11628f55a4df523b3ef60405160405180910390a46119f35f83836114ce565b5050565b5f808273ffffffffffffffffffffffffffffffffffffffff163b119050919050565b505050565b60088054905060095f8381526020019081526020015f2081905550600881908060018154018082558091505060019003905f5260205f20015f909190919091505550565b5f6001611a6e846109f5565b611a789190612dd9565b90505f60075f8481526020019081526020015f20549050818114611b4f575f60065f8673ffffffffffffffffffffffffffffffffffffffff1673ffffffffffffffffffffffffffffffffffffffff1681526020019081526020015f205f8481526020019081526020015f205490508060065f8773ffffffffffffffffffffffffffffffffffffffff1673ffffffffffffffffffffffffffffffffffffffff1681526020019081526020015f205f8481526020019081526020015f20819055508160075f8381526020019081526020015f2081905550505b60075f8481526020019081526020015f205f905560065f8573ffffffffffffffffffffffffffffffffffffffff1673ffffffffffffffffffffffffffffffffffffffff1681526020019081526020015f205f8381526020019081526020015f205f905550505050565b5f6001600880549050611bcb9190612dd9565b90505f60095f8481526020019081526020015f205490505f60088381548110611bf757611bf6612707565b5b905f5260205f20015490508060088381548110611c1757611c16612707565b5b905f5260205f2001819055508160095f8381526020019081526020015f208190555060095f8581526020019081526020015f205f90556008805480611c5f57611c5e6130e0565b5b600190038181905f5260205f20015f9055905550505050565b5f611c82836109f5565b90508160065f8573ffffffffffffffffffffffffffffffffffffffff1673ffffffffffffffffffffffffffffffffffffffff1681526020019081526020015f205f8381526020019081526020015f20819055508060075f8481526020019081526020015f2081905550505050565b5f604051905090565b5f80fd5b5f80fd5b5f7fffffffff0000000000000000000000000000000000000000000000000000000082169050919050565b611d3581611d01565b8114611d3f575f80fd5b50565b5f81359050611d5081611d2c565b92915050565b5f60208284031215611d6b57611d6a611cf9565b5b5f611d7884828501611d42565b91505092915050565b5f8115159050919050565b611d9581611d81565b82525050565b5f602082019050611dae5f830184611d8c565b92915050565b5f81519050919050565b5f82825260208201905092915050565b5f5b83811015611deb578082015181840152602081019050611dd0565b5f8484015250505050565b5f601f19601f8301169050919050565b5f611e1082611db4565b611e1a8185611dbe565b9350611e2a818560208601611dce565b611e3381611df6565b840191505092915050565b5f6020820190508181035f830152611e568184611e06565b905092915050565b5f819050919050565b611e7081611e5e565b8114611e7a575f80fd5b50565b5f81359050611e8b81611e67565b92915050565b5f60208284031215611ea657611ea5611cf9565b5b5f611eb384828501611e7d565b91505092915050565b5f73ffffffffffffffffffffffffffffffffffffffff82169050919050565b5f611ee582611ebc565b9050919050565b611ef581611edb565b82525050565b5f602082019050611f0e5f830184611eec565b92915050565b611f1d81611edb565b8114611f27575f80fd5b50565b5f81359050611f3881611f14565b92915050565b5f8060408385031215611f5457611f53611cf9565b5b5f611f6185828601611f2a565b9250506020611f7285828601611e7d565b9150509250929050565b611f8581611e5e565b82525050565b5f602082019050611f9e5f830184611f7c565b92915050565b5f805f60608486031215611fbb57611fba611cf9565b5b5f611fc886828701611f2a565b9350506020611fd986828701611f2a565b9250506040611fea86828701611e7d565b9150509250925092565b5f80fd5b5f80fd5b7f4e487b71000000000000000000000000000000000000000000000000000000005f52604160045260245ffd5b61203282611df6565b810181811067ffffffffffffffff8211171561205157612050611ffc565b5b80604052505050565b5f612063611cf0565b905061206f8282612029565b919050565b5f67ffffffffffffffff82111561208e5761208d611ffc565b5b61209782611df6565b9050602081019050919050565b828183375f83830152505050565b5f6120c46120bf84612074565b61205a565b9050828152602081018484840111156120e0576120df611ff8565b5b6120eb8482856120a4565b509392505050565b5f82601f83011261210757612106611ff4565b5b81356121178482602086016120b2565b91505092915050565b5f6020828403121561213557612134611cf9565b5b5f82013567ffffffffffffffff81111561215257612151611cfd565b5b61215e848285016120f3565b91505092915050565b5f6020828403121561217c5761217b611cf9565b5b5f61218984828501611f2a565b91505092915050565b61219b81611d81565b81146121a5575f80fd5b50565b5f813590506121b681612192565b92915050565b5f80604083850312156121d2576121d1611cf9565b5b5f6121df85828601611f2a565b92505060206121f0858286016121a8565b9150509250929050565b5f67ffffffffffffffff82111561221457612213611ffc565b5b61221d82611df6565b9050602081019050919050565b5f61223c612237846121fa565b61205a565b90508281526020810184848401111561225857612257611ff8565b5b6122638482856120a4565b509392505050565b5f82601f83011261227f5761227e611ff4565b5b813561228f84826020860161222a565b91505092915050565b5f805f80608085870312156122b0576122af611cf9565b5b5f6122bd87828801611f2a565b94505060206122ce87828801611f2a565b93505060406122df87828801611e7d565b925050606085013567ffffffffffffffff811115612300576122ff611cfd565b5b61230c8782880161226b565b91505092959194509250565b5f806040838503121561232e5761232d611cf9565b5b5f61233b85828601611f2a565b925050602061234c85828601611f2a565b9150509250929050565b7f4e487b71000000000000000000000000000000000000000000000000000000005f52602260045260245ffd5b5f600282049050600182168061239a57607f821691505b6020821081036123ad576123ac612356565b5b50919050565b7f4552433732313a20617070726f76656420717565727920666f72206e6f6e65785f8201527f697374656e7420746f6b656e0000000000000000000000000000000000000000602082015250565b5f61240d602c83611dbe565b9150612418826123b3565b604082019050919050565b5f6020820190508181035f83015261243a81612401565b9050919050565b7f4552433732313a20617070726f76616c20746f2063757272656e74206f776e655f8201527f7200000000000000000000000000000000000000000000000000000000000000602082015250565b5f61249b602183611dbe565b91506124a682612441565b604082019050919050565b5f6020820190508181035f8301526124c88161248f565b9050919050565b7f4552433732313a20617070726f76652063616c6c6572206973206e6f74206f775f8201527f6e6572206e6f7220617070726f76656420666f7220616c6c0000000000000000602082015250565b5f612529603883611dbe565b9150612534826124cf565b604082019050919050565b5f6020820190508181035f8301526125568161251d565b9050919050565b7f4552433732313a207472616e736665722063616c6c6572206973206e6f74206f5f8201527f776e6572206e6f7220617070726f766564000000000000000000000000000000602082015250565b5f6125b7603183611dbe565b91506125c28261255d565b604082019050919050565b5f6020820190508181035f8301526125e4816125ab565b9050919050565b7f455243373231456e756d657261626c653a206f776e657220696e646578206f755f8201527f74206f6620626f756e6473000000000000000000000000000000000000000000602082015250565b5f612645602b83611dbe565b9150612650826125eb565b604082019050919050565b5f6020820190508181035f83015261267281612639565b9050919050565b7f455243373231456e756d657261626c653a20676c6f62616c20696e646578206f5f8201527f7574206f6620626f756e64730000000000000000000000000000000000000000602082015250565b5f6126d3602c83611dbe565b91506126de82612679565b604082019050919050565b5f6020820190508181035f830152612700816126c7565b9050919050565b7f4e487b71000000000000000000000000000000000000000000000000000000005f52603260045260245ffd5b7f4552433732313a206f776e657220717565727920666f72206e6f6e65786973745f8201527f656e7420746f6b656e0000000000000000000000000000000000000000000000602082015250565b5f61278e602983611dbe565b915061279982612734565b604082019050919050565b5f6020820190508181035f8301526127bb81612782565b9050919050565b5f81905092915050565b5f6127d682611db4565b6127e081856127c2565b93506127f0818560208601611dce565b80840191505092915050565b5f61280782846127cc565b915081905092915050565b7f54686520746f6b656e205552492073686f756c6420626520756e6971756500005f82015250565b5f612846601e83611dbe565b915061285182612812565b602082019050919050565b5f6020820190508181035f8301526128738161283a565b9050919050565b5f819050815f5260205f209050919050565b5f6020601f8301049050919050565b5f82821b905092915050565b5f600883026128d67fffffffffffffffffffffffffffffffffffffffffffffffffffffffffffffffff8261289b565b6128e0868361289b565b95508019841693508086168417925050509392505050565b5f819050919050565b5f61291b61291661291184611e5e565b6128f8565b611e5e565b9050919050565b5f819050919050565b61293483612901565b61294861294082612922565b8484546128a7565b825550505050565b5f90565b61295c612950565b61296781848461292b565b505050565b5b8181101561298a5761297f5f82612954565b60018101905061296d565b5050565b601f8211156129cf576129a08161287a565b6129a98461288c565b810160208510156129b8578190505b6129cc6129c48561288c565b83018261296c565b50505b505050565b5f82821c905092915050565b5f6129ef5f19846008026129d4565b1980831691505092915050565b5f612a0783836129e0565b9150826002028217905092915050565b612a2082611db4565b67ffffffffffffffff811115612a3957612a38611ffc565b5b612a438254612383565b612a4e82828561298e565b5f60209050601f831160018114612a7f575f8415612a6d578287015190505b612a7785826129fc565b865550612ade565b601f198416612a8d8661287a565b5f5b82811015612ab457848901518255600182019150602085019450602081019050612a8f565b86831015612ad15784890151612acd601f8916826129e0565b8355505b6001600288020188555050505b505050505050565b7f4552433732313a2062616c616e636520717565727920666f7220746865207a655f8201527f726f206164647265737300000000000000000000000000000000000000000000602082015250565b5f612b40602a83611dbe565b9150612b4b82612ae6565b604082019050919050565b5f6020820190508181035f830152612b6d81612b34565b9050919050565b7f4552433732314d657461646174613a2055524920717565727920666f72206e6f5f8201527f6e6578697374656e7420746f6b656e0000000000000000000000000000000000602082015250565b5f612bce602f83611dbe565b9150612bd982612b74565b604082019050919050565b5f6020820190508181035f830152612bfb81612bc2565b9050919050565b7f4552433732313a206f70657261746f7220717565727920666f72206e6f6e65785f8201527f697374656e7420746f6b656e0000000000000000000000000000000000000000602082015250565b5f612c5c602c83611dbe565b9150612c6782612c02565b604082019050919050565b5f6020820190508181035f830152612c8981612c50565b9050919050565b7f4552433732313a207472616e736665722066726f6d20696e636f7272656374205f8201527f6f776e6572000000000000000000000000000000000000000000000000000000602082015250565b5f612cea602583611dbe565b9150612cf582612c90565b604082019050919050565b5f6020820190508181035f830152612d1781612cde565b9050919050565b7f4552433732313a207472616e7366657220746f20746865207a65726f206164645f8201527f7265737300000000000000000000000000000000000000000000000000000000602082015250565b5f612d78602483611dbe565b9150612d8382612d1e565b604082019050919050565b5f6020820190508181035f830152612da581612d6c565b9050919050565b7f4e487b71000000000000000000000000000000000000000000000000000000005f52601160045260245ffd5b5f612de382611e5e565b9150612dee83611e5e565b9250828203905081811115612e0657612e05612dac565b5b92915050565b5f612e1682611e5e565b9150612e2183611e5e565b9250828201905080821115612e3957612e38612dac565b5b92915050565b7f4552433732313a20617070726f766520746f2063616c6c6572000000000000005f82015250565b5f612e73601983611dbe565b9150612e7e82612e3f565b602082019050919050565b5f6020820190508181035f830152612ea081612e67565b9050919050565b7f4552433732313a207472616e7366657220746f206e6f6e2045524337323152655f8201527f63656976657220696d706c656d656e7465720000000000000000000000000000602082015250565b5f612f01603283611dbe565b9150612f0c82612ea7565b604082019050919050565b5f6020820190508181035f830152612f2e81612ef5565b9050919050565b5f81519050919050565b5f82825260208201905092915050565b5f612f5982612f35565b612f638185612f3f565b9350612f73818560208601611dce565b612f7c81611df6565b840191505092915050565b5f608082019050612f9a5f830187611eec565b612fa76020830186611eec565b612fb46040830185611f7c565b8181036060830152612fc68184612f4f565b905095945050505050565b5f81519050612fdf81611d2c565b92915050565b5f60208284031215612ffa57612ff9611cf9565b5b5f61300784828501612fd1565b91505092915050565b7f4552433732313a206d696e7420746f20746865207a65726f20616464726573735f82015250565b5f613044602083611dbe565b915061304f82613010565b602082019050919050565b5f6020820190508181035f83015261307181613038565b9050919050565b7f4552433732313a20746f6b656e20616c7265616479206d696e746564000000005f82015250565b5f6130ac601c83611dbe565b91506130b782613078565b602082019050919050565b5f6020820190508181035f8301526130d9816130a0565b9050919050565b7f4e487b71000000000000000000000000000000000000000000000000000000005f52603160045260245ffdfea264697066735822122014f706fcb9635f54fb34e0545bfec0eaba648f1befa9ac5d12f8d3e632a4461464736f6c63430008170033",
  "immutableReferences": {},
  "source": "// SPDX-License-Identifier: MIT\r\npragma solidity ^0.8.0;\r\n\r\nimport \"@openzeppelin/contracts/token/ERC721/ERC721.sol\";\r\nimport \"@openzeppelin/contracts/token/ERC721/extensions/ERC721Enumerable.sol\";\r\n\r\ncontract NFTCollection is ERC721, ERC721Enumerable {\r\n  string[] public tokenURIs;\r\n  mapping(string => bool) _tokenURIExists;\r\n  mapping(uint => string) _tokenIdToTokenURI;\r\n\r\n  constructor() \r\n    ERC721(\"mTC Collection\", \"mTC\") \r\n  {\r\n  }\r\n\r\n  function _beforeTokenTransfer(address from, address to, uint256 tokenId) internal override(ERC721, ERC721Enumerable) {\r\n    super._beforeTokenTransfer(from, to, tokenId);\r\n  }\r\n\r\n  function supportsInterface(bytes4 interfaceId) public view override(ERC721, ERC721Enumerable) returns (bool) {\r\n    return super.supportsInterface(interfaceId);\r\n  }\r\n\r\n  function tokenURI(uint256 tokenId) public override view returns (string memory) {\r\n    require(_exists(tokenId), 'ERC721Metadata: URI query for nonexistent token');\r\n    return _tokenIdToTokenURI[tokenId];\r\n  }\r\n\r\n  function safeMint(string memory _tokenURI) public {\r\n    require(!_tokenURIExists[_tokenURI], 'The token URI should be unique');\r\n    tokenURIs.push(_tokenURI);    \r\n    uint _id = tokenURIs.length;\r\n    _tokenIdToTokenURI[_id] = _tokenURI;\r\n    _safeMint(msg.sender, _id);\r\n    _tokenURIExists[_tokenURI] = true;\r\n  }\r\n}",
  "sourcePath": "H:\\ilapz\\nftmarketplace\\src\\contracts\\NFTCollection.sol",
  "compiler": {
    "name": "solc",
    "version": "0.8.23+commit.f704f362.Emscripten.clang"
  },
  "schemaVersion": "3.4.11",
  "updatedAt": "2023-11-23T05:37:47.030Z",
  "devdoc": {
    "events": {
      "Approval(address,address,uint256)": {
        "details": "Emitted when `owner` enables `approved` to manage the `tokenId` token."
      },
      "ApprovalForAll(address,address,bool)": {
        "details": "Emitted when `owner` enables or disables (`approved`) `operator` to manage all of its assets."
      },
      "Transfer(address,address,uint256)": {
        "details": "Emitted when `tokenId` token is transferred from `from` to `to`."
      }
    },
    "kind": "dev",
    "methods": {
      "approve(address,uint256)": {
        "details": "See {IERC721-approve}."
      },
      "balanceOf(address)": {
        "details": "See {IERC721-balanceOf}."
      },
      "getApproved(uint256)": {
        "details": "See {IERC721-getApproved}."
      },
      "isApprovedForAll(address,address)": {
        "details": "See {IERC721-isApprovedForAll}."
      },
      "name()": {
        "details": "See {IERC721Metadata-name}."
      },
      "ownerOf(uint256)": {
        "details": "See {IERC721-ownerOf}."
      },
      "safeTransferFrom(address,address,uint256)": {
        "details": "See {IERC721-safeTransferFrom}."
      },
      "safeTransferFrom(address,address,uint256,bytes)": {
        "details": "See {IERC721-safeTransferFrom}."
      },
      "setApprovalForAll(address,bool)": {
        "details": "See {IERC721-setApprovalForAll}."
      },
      "symbol()": {
        "details": "See {IERC721Metadata-symbol}."
      },
      "tokenByIndex(uint256)": {
        "details": "See {IERC721Enumerable-tokenByIndex}."
      },
      "tokenOfOwnerByIndex(address,uint256)": {
        "details": "See {IERC721Enumerable-tokenOfOwnerByIndex}."
      },
      "tokenURI(uint256)": {
        "details": "See {IERC721Metadata-tokenURI}."
      },
      "totalSupply()": {
        "details": "See {IERC721Enumerable-totalSupply}."
      },
      "transferFrom(address,address,uint256)": {
        "details": "See {IERC721-transferFrom}."
      }
    },
    "version": 1
  },
  "userdoc": {
    "kind": "user",
    "methods": {},
    "version": 1
  }
}